{
	"data": {
		"bytecode": {
			"linkReferences": {},
			"object": "60806040525f805462ffffff191690553480156019575f5ffd5b5060b68060255f395ff3fe6080604052348015600e575f5ffd5b5060043610603a575f3560e01c806310cd83c014603e57806333d1c2fc14605f57806336f4a00614606f575b5f5ffd5b5f5460499060ff1681565b60405160ff909116815260200160405180910390f35b5f54604990610100900460ff1681565b5f5460499062010000900460ff168156fea2646970667358221220f2ec513c2222890608589393eee6f9e96efbf8a99cc5d1cd7e73689cea8368bb64736f6c634300081e0033",
			"opcodes": "PUSH1 0x80 PUSH1 0x40 MSTORE PUSH0 DUP1 SLOAD PUSH3 0xFFFFFF NOT AND SWAP1 SSTORE CALLVALUE DUP1 ISZERO PUSH1 0x19 JUMPI PUSH0 PUSH0 REVERT JUMPDEST POP PUSH1 0xB6 DUP1 PUSH1 0x25 PUSH0 CODECOPY PUSH0 RETURN INVALID PUSH1 0x80 PUSH1 0x40 MSTORE CALLVALUE DUP1 ISZERO PUSH1 0xE JUMPI PUSH0 PUSH0 REVERT JUMPDEST POP PUSH1 0x4 CALLDATASIZE LT PUSH1 0x3A JUMPI PUSH0 CALLDATALOAD PUSH1 0xE0 SHR DUP1 PUSH4 0x10CD83C0 EQ PUSH1 0x3E JUMPI DUP1 PUSH4 0x33D1C2FC EQ PUSH1 0x5F JUMPI DUP1 PUSH4 0x36F4A006 EQ PUSH1 0x6F JUMPI JUMPDEST PUSH0 PUSH0 REVERT JUMPDEST PUSH0 SLOAD PUSH1 0x49 SWAP1 PUSH1 0xFF AND DUP2 JUMP JUMPDEST PUSH1 0x40 MLOAD PUSH1 0xFF SWAP1 SWAP2 AND DUP2 MSTORE PUSH1 0x20 ADD PUSH1 0x40 MLOAD DUP1 SWAP2 SUB SWAP1 RETURN JUMPDEST PUSH0 SLOAD PUSH1 0x49 SWAP1 PUSH2 0x100 SWAP1 DIV PUSH1 0xFF AND DUP2 JUMP JUMPDEST PUSH0 SLOAD PUSH1 0x49 SWAP1 PUSH3 0x10000 SWAP1 DIV PUSH1 0xFF AND DUP2 JUMP INVALID LOG2 PUSH5 0x6970667358 0x22 SLT KECCAK256 CALLCODE EOFCREATE 0x51 EXTCODECOPY 0x22 0x22 DUP10 MOD ADDMOD PC SWAP4 SWAP4 RETURNCONTRACT 0xE6 EXTDELEGATECALL 0xE9 PUSH15 0xFBF8A99CC5D1CD7E73689CEA8368BB PUSH5 0x736F6C6343 STOP ADDMOD 0x1E STOP CALLER "
		},
		"gasEstimates": {
			"creation": {
				"codeDepositCost": "36400",
				"executionCost": "24302",
				"totalCost": "60702"
			},
			"external": {
				"question1()": "2277",
				"question2()": "2310",
				"question3()": "2332"
			}
		},
		"methodIdentifiers": {
			"question1()": "10cd83c0",
			"question2()": "33d1c2fc",
			"question3()": "36f4a006"
		}
	},
	"abi": [
		{
			"inputs": [],
			"name": "question1",
			"outputs": [
				{
					"internalType": "uint8",
					"name": "",
					"type": "uint8"
				}
			],
			"stateMutability": "view",
			"type": "function"
		},
		{
			"inputs": [],
			"name": "question2",
			"outputs": [
				{
					"internalType": "uint8",
					"name": "",
					"type": "uint8"
				}
			],
			"stateMutability": "view",
			"type": "function"
		},
		{
			"inputs": [],
			"name": "question3",
			"outputs": [
				{
					"internalType": "uint8",
					"name": "",
					"type": "uint8"
				}
			],
			"stateMutability": "view",
			"type": "function"
		}
	]
}